:100000000C9450080C9478080C9478080C94780898
:100010000C9478080C9478080C9478080C94780860
:100020000C9478080C9478080C9478080C94780850
:100030000C9478080C9478080C9478080C94780840
:100040000C94DF110C9478080C94CA180C940D19B8
:100050000C9478080C9478080C9478080C94780820
:100060000C9478080C947808FC10FF1015111811E6
:100070001F113411FC103F115F1171113F1136290E
:100080004E294E294C294E2934294E294E294E29D4
:1000900027294E294E293E294A2948294E294E29E9
:1000A0004E2946293C2F73616D706C653E003C44BF
:1000B0005331383E0A3C647331385F6C626C3E2ABF
:1000C0002A3C2F647331385F6C626C3E0A3C647367
:1000D00031385F74656D7020745F7363616C653D6A
:1000E0002246223E30302E303C2F647331385F740C
:1000F000656D703E0A3C2F445331383E003C2F441E
:100100005331383E003C2F647331385F74656D7035
:100110003E003C647331385F74656D7020745F73AA
:1001200063616C653D2246223E003C2F647331388A
:100130005F6C626C3E003C647331385F6C626C3E95
:10014000003C445331383E003C2F44485432323E48
:10015000003C2F6468745F72683E003C6468745FA2
:10016000726820756E69743D2225223E003C2F6422
:1001700068745F74656D703E003C6468745F74659C
:100180006D7020745F7363616C653D2246223E0092
:100190003C44485432323E003C2F4D504C333131B8
:1001A0003541323E003C2F6D706C5F74656D703E62
:1001B000003C6D706C5F74656D7020745F7363617B
:1001C0006C653D2246223E003C2F6D706C5F707264
:1001D0006573733E003C6D706C5F70726573732065
:1001E000705F756E69743D225061223E003C4D5037
:1001F0004C3331313541323E00273C2F6461746508
:100200005F74696D653E003C646174655F74696D1F
:10021000653E27003C73616D706C653E00206D7318
:100220000020204C6F6F702074696D653A200020AB
:1002300020445331383A20002520524800462040BF
:100240002000202044485432323A2054656D703DDD
:100250000046002054656D703D00506100205072D2
:100260006573737572653D006D0020204D504C3AEA
:1002700020416C7469747564653D003C2F73616D39
:10028000706C65733E003C73616D706C65733E000D
:100290003C21444F43545950452073616D706C6547
:1002A000732053595354454D202277656174686516
:1002B000725F646174612E647464223E003C3F7816
:1002C0006D6C2076657273696F6E3D22312E30221F
:1002D000203F3E003C212D2D2041726475696E6FD8
:1002E0002D426173656420576561746865722050A2
:1002F000726F626520666F72205261737062657200
:100300007279205069202D2D3E005B2557505D20CD
:10031000445331382070726F626573204E4F542001
:10032000636F6E6E656374656421005B2557505D75
:10033000204448543232206973204E4F5420636F5A
:100340006E6E656374656421005B2557505D204DBA
:10035000504C333131354132206973204E4F542097
:10036000636F6E6E656374656421005B2557505D35
:1003700020525443206973204E4F5420636F6E6E99
:100380006563746564212020456D756C6174696EC8
:100390006720636C6F636B2E000000000700020192
:1003A0000000030406000000000000000001020439
:1003B00008102040800102040810200102040810E7
:1003C00020040404040404040402020202020203DE
:1003D000030303030300000000230026002900009C
:1003E000000000250028002B00000000002400274A
:1003F000002A00005EBCE2613FDD83C29C7E20A338
:10040000FD1F419DC3217FFCA2401E5F01E3BD3E55
:100410006082DC237D9FC1421CFEA0E1BF5D0380A2
:10042000DE3C62BEE0025CDF81633D7C22C09E1D3B
:1004300043A1FF4618FAA427799BC584DA3866E5FC
:10044000BB5907DB856739BAE406581947A5FB781D
:1004500026C49A653BD987045AB8E6A7F91B45C656
:10046000987A24F8A6441A99C7257B3A6486D85B03
:1004700005E7B98CD2306EEDB3510F4E10F2AC2FB0
:100480007193CD114FADF3702ECC92D38D6F31B2ED
:10049000EC0E50AFF1134DCE90722C6D33D18F0C0A
:1004A00052B0EE326C8ED0530DEFB1F0AE4C1291D3
:1004B000CF2D73CA947628ABF517490856B4EA696C
:1004C00037D58B5709EBB536688AD495CB2977F4A5
:1004D000AA4816E9B7550B88D6346A2B7597C94ACE
:1004E00014F6A8742AC896154BA9F7B6E80A54D78B
:1004F000896B3504E010021C07123732292D29259B
:100500002B3900010310E110031D07062E2C292DA5
:100510002E2E373F0000021013800A298064022A21
:10052000040000007F2B040000009F022A04000248
:1005300000812B04000100A00F0180961180FFB103
:1005400003012C2DB203012C2DB306012C2D012CFF
:100550002DB40107C003A20284C101C5C2020A0072
:10056000C3028A2AC4028AEEC5010E20003601C8E1
:100570003A010500000000003E5B4F5B3E3E6B4FC2
:100580006B3E1C3E7C3E1C183C7E3C181C577D5725
:100590001C1C5E7F5E1C00183C1800FFE7C3E7FFD1
:1005A0000018241800FFE7DBE7FF30483A060E2664
:1005B00029792926407F050507407F05253F5A3CBC
:1005C000E73C5A7F3E1C1C08081C1C3E7F14227FFF
:1005D00022145F5F005F5F06097F017F00668995D7
:1005E0006A606060606094A2FFA29408047E0408C0
:1005F00010207E201008082A1C08081C2A08081E43
:10060000101010100C1E0C1E0C30383E3830060E28
:100610003E0E06000000000000005F000000070022
:100620000700147F147F14242A7F2A1223130864DE
:100630006236495620500008070300001C22410082
:100640000041221C002A1C7F1C2A08083E080800C2
:100650008070300008080808080000606000201062
:100660000804023E5149453E00427F40007249491C
:1006700049462141494D331814127F1027454545FD
:10068000393C4A494931412111090736494949361E
:10069000464949291E0000140000004034000000B3
:1006A00008142241141414141400412214080201E5
:1006B0005909063E415D594E7C1211127C7F494911
:1006C00049363E414141227F4141413E7F494949AE
:1006D000417F090909013E414151737F0808087FA4
:1006E00000417F41002040413F017F081422417FAB
:1006F000404040407F021C027F7F0408107F3E4143
:1007000041413E7F090909063E4151215E7F091999
:100710002946264949493203017F01033F404040B1
:100720003F1F2040201F3F4038403F6314081463A0
:1007300003047804036159494D43007F414141025C
:1007400004081020004141417F040201020440409E
:10075000404040000307080020545478407F28445C
:1007600044383844444428384444287F3854545446
:100770001800087E090218A4A49C787F0804047855
:1007800000447D40002040403D007F102844000090
:10079000417F40007C047804787C08040478384465
:1007A000444438FC1824241818242418FC7C080419
:1007B0000408485454542404043F44243C4040203A
:1007C0007C1C2040201C3C4030403C4428102844E5
:1007D0004C9090907C4464544C4400083641000096
:1007E00000770000004136080002010204023C26A6
:1007F00023263C1EA1A161123A4040207A3854546D
:1008000055592155557941215454784121555478F1
:100810004020545579400C1E527212395555555985
:10082000395454545939555454580000457C4100AA
:1008300002457D420001457C40F0292429F0F02842
:100840002528F07C545545002054547C547C0A09DA
:100850007F4932494949323248484832324A484849
:10086000303A4141217A3A42402078009DA0A07D53
:1008700039444444393D4040403D3C24FF24244811
:100880007E4943662B2FFC2F2BFF0929F620C088B9
:100890007E090320545479410000447D413048488A
:1008A0004A32384040227A007A0A0A727D0D1931A4
:1008B0007D2629292F28262929292630484D402000
:1008C000380808080808080808382F10C8ACBA2FDC
:1008D000102834FA00007B000008142A1422221485
:1008E0002A1408AA005500AAAA55AA55AA00000071
:1008F000FF00101010FF00141414FF001010FF0070
:10090000FF1010F010F0141414FC001414F700FF82
:100910000000FF00FF1414F404FC141417101F103F
:10092000101F101F1414141F00101010F0000000EE
:10093000001F101010101F10101010F010000000F9
:10094000FF101010101010101010FF10000000FF0A
:10095000140000FF00FF00001F10170000FC04F44B
:1009600014141710171414F404F40000FF00F71403
:10097000141414141414F700F7141414171410108A
:100980001F101F141414F4141010F010F000001FA6
:10099000101F0000001F14000000FC140000F010E5
:1009A000F01010FF10FF141414FF141010101F008B
:1009B000000000F010FFFFFFFFFFF0F0F0F0F0FF8D
:1009C000FFFF0000000000FFFF0F0F0F0F0F384464
:1009D0004438447C2A2A3E147E02020606027E0225
:1009E0007E0263554941633844443C04407E201EE6
:1009F0002006027E020299A5E7A5991C2A492A1C15
:100A00004C7201724C304A4D4D303048784830BC01
:100A1000625A463D3E494949007E0101017E2A2A2B
:100A20002A2A2A44445F444440514A444040444AAC
:100A300051400000FF0103E080FF000008086B6BDD
:100A4000083612362436060F090F06000018180063
:100A500000001010003040FF0101001F01011E00C6
:100A6000191D1712003C3C3C3C00000000001F1CFC
:100A70001F1E1F1E1F1F1E1F1E1F496E20656E6139
:100A8000626C654576656E74466C61677328292CC7
:100A9000206543203D203078003B2041746D656C1B
:100AA00020493243206572726F7220636F64652043
:100AB0003D2030780049324320636F6D6D756E695B
:100AC000636174696F6E2072656164206572726F14
:100AD0007220696E20003B2041746D656C204932A4
:100AE00043206572726F7220636F6465203D203011
:100AF000780049324320636F6D6D756E6963617470
:100B0000696F6E207772697465206572726F7220EA
:100B1000696E20004374726C20526567203D20305E
:100B200078004932432072656164206572726F7289
:100B300020636F6465203D2030780054696D656FD7
:100B400075742077616974696E6720666F722072B0
:100B50006573657400746F67676C654F6E65536885
:100B60006F74282900746F67676C654F6E655368F2
:100B70006F74282900746F67676C654F6E655368E2
:100B80006F74282900746F67676C654F6E655368D2
:100B90006F742829007365744F76657273616D7088
:100BA0006C65526174652829007365744F766572AF
:100BB00073616D706C65526174652829007365748A
:100BC0004D6F64655374616E6462792829007365A2
:100BD000744D6F64655374616E6462792829007383
:100BE00065744D6F6465416C74696D6574657228D8
:100BF00029007365744D6F6465416C74696D65742B
:100C000065722829007365744D6F64654261726F67
:100C10006D657465722829007365744D6F64654253
:100C200061726F6D65746572282900726561645028
:100C30007265737375726528292067657474696EAF
:100C400067206C73620072656164507265737375BE
:100C5000726528292067657474696E67206D7362F8
:100C6000007265616454656D702829206461746147
:100C70002073616D706C696E670054696D656F7586
:100C8000742077616974696E6720666F722074657D
:100C90006D7065726174757265007265616454652A
:100CA0006D70282920646174612073616D706C69B6
:100CB0006E670054656D70206461746120726561B7
:100CC0006479206174207374617274206F6620727D
:100CD00065616454656D70282921007265616454F2
:100CE000656D70282920326E6420627566666572B3
:100CF0002D636C656172007265616454656D702866
:100D000029206275666665722D636C65617200727A
:100D100065616454656D7028292062756666657228
:100D20002D636C65617200726561645072657373E6
:100D300075726528292067657474696E67206C7305
:100D400062007265616450726573737572652829FB
:100D50002067657474696E672063736200726561F1
:100D600064507265737375726528292067657474A1
:100D7000696E67206D73620070726573737572655A
:100D8000282920646174612073616D706C696E67DD
:100D90000054696D656F75742077616974696E6759
:100DA00020666F7220707265737375726500707261
:100DB000657373757265282920646174612073619D
:100DC0006D706C696E670050726573737572652023
:100DD0006461746120726561647920617420737448
:100DE000617274206F6620616C746974756465212A
:100DF000007265616450726573737572652829208D
:100E00006275666665722D636C65617200726561FC
:100E100064416C746974756465282920627566661E
:100E200065722D636C6561720072656164507265F4
:100E300073737572652829206275666665722D6305
:100E40006C6561720072656164416C74697475648B
:100E50006528292067657474696E67206C73620069
:100E600072656164416C74697475646528292067D2
:100E7000657474696E6720637362007265616441B2
:100E80006C74697475646528292067657474696E6B
:100E900067206D73620054696D656F7574207761AA
:100EA0006974696E6720666F7220616C746974750D
:100EB00064652072656164696E6700507265737362
:100EC0007572652064617461207265616479206166
:100ED00074207374617274206F6620616C7469741D
:100EE000756465210072656164416C746974756430
:100EF000652829206275666665722D636C6561726E
:100F00000072656164416C74697475646528292098
:100F10006275666665722D636C65617200726561EB
:100F200064416C746974756465282920627566660D
:100F300065722D636C65617200616C7469747564AF
:100F400065436F7272656374696F6E004932432046
:100F50006572726F7220636F6465203D2030780087
:100F60005B254D504C3331313541325D204E6F2081
:100F7000726573706F6E73652066726F6D204D5071
:100F80004C333131354132202D20636865636B204D
:100F9000636F6E6E656374696F6E732E2020000040
:100FA000407A10F35A00A0724E18090010A5D4E838
:100FB0000000E87648170000E40B54020000CA9ACB
:100FC0003B000000E1F5050000809698000000401D
:100FD000420F000000A08601000000102700000062
:100FE00000E803000000006400000000000A0000A8
:100FF0000000000100000000002C76D888DC674F5C
:101000000823DFC1DFAE59E1B1B796E5E3E453C68B
:101010003AE651997696E8E6C28426EB898C9B6283
:10102000ED407C6FFCEFBC9C9F40F2BAA56FA5F42D
:1010300090055A2AF75C936B6CF9676DC11BFCE055
:10104000E40D47FEF520E6B500D0ED902E030094A8
:101050003577050080841E080000204E0A0000003D
:10106000C80C333333330F986E12831141EF8D2147
:1010700014893BE65516CFFEE6DB18D1844B381BAE
:10108000F77C1D901DA4BBE424203284725E228173
:1010900000C9F124ECA1E53D27007C0ECE19D50E48
:1010A00011241FBECFEFD8E0DEBFCDBF14E0A0E01B
:1010B000B1E0E4EBF7E702C005900D92A035B1076F
:1010C000D9F726E0A0E5B4E001C01D92AA37B20727
:1010D000E1F710E1CEE9D0E104C02297FE010E94C1
:1010E000783BCA39D107C9F70E942B180C940734F2
:1010F0000C940000CF92DF92EF92FF920F931F9318
:10110000CF93DF93EB018230910509F4DAC083308D
:10111000910509F471C1019709F057C28FE995E073
:101120000E941D146AE672E08FE995E00E94C313E5
:10113000488D598D6A8D7B8D21E030E08FE995E0F7
:101140000E94181668E672E08FE995E00E94C313CA
:101150006DE572E08FE995E00E94C3134C8D5D8DC3
:101160006E8D7F8D20E030E08FE995E00E941816AB
:101170006AE572E08FE995E00E94C31363E572E0CF
:101180008FE995E00E94C31348A159A16AA17BA1F0
:1011900021E030E08FE995E00E94181661E572E0E9
:1011A0008FE995E00E94C31362E472E08FE995E055
:1011B0000E94C3134CA15DA16EA17FA121E030E08C
:1011C0008FE995E00E9418166DE372E08FE995E0D3
:1011D0000E94C31348A559A56AA57BA520E030E06D
:1011E0008FE995E00E94181668E372E08FE995E0B8
:1011F0000E94C3136FE272E08FE995E00E94C3136F
:101200007E018CE2E80EF11C00E010E0C090AE041C
:10121000D090AF0424960C151D0534F5B7018FE965
:1012200095E00E941D14E0919F05F091A0050190AA
:10123000F081E02D6DE38FE995E009954CA95DA95A
:101240006EA97FA921E030E08FE995E00E94181691
:101250006BE171E08FE995E00E941D140F5F1F4F55
:1012600083E0E80EF11CD2CF84E0C816D10454F418
:101270006EE171E08FE995E00E941D148FEFC81AAE
:10128000D80AF2CF61E272E08FE995E00E94C313C1
:101290000E942912AB01BC018091EC049091ED04F5
:1012A000A091EE04B091EF04481B590B6A0B7B0B25
:1012B0002AE030E08FE995E00E9409156DE172E0C7
:1012C00078C169E271E08FE995E00E941D14BE01CA
:1012D0008FE995E00E941D146CE271E08FE995E0C2
:1012E0000E941D144C8D5D8D6E8D7F8D20E030E051
:1012F0008FE995E00E9418166DE271E08FE995E0A4
:101300000E941D1448A159A16AA17BA121E030E0EF
:101310008FE995E00E9418166DE271E08FE995E083
:101320000E941D144CA15DA16EA17FA121E030E0BF
:101330008FE995E00E9418166DE271E08FE995E063
:101340000E941D1448A559A56AA57BA520E030E0A0
:101350008FE995E00E9418168E01045D1F4FE12C65
:10136000F12CC090AE04D090AF042496EC14FD0490
:101370000CF56FE271E08FE995E00E941D14B80151
:101380008FE995E00E941D146CE271E08FE995E011
:101390000E941D144CA95DA96EA97FA921E030E02F
:1013A0008FE995E00E9418168FEFE81AF80A0D5F92
:1013B0001F4FD7CF84E0C816D10484F46DE271E0EA
:1013C0008FE995E00E941D1462E371E08FE995E0DA
:1013D0000E941D148FEFC81AD80AECCF62E274E0A5
:1013E0008FE995E0DF91CF911F910F91FF90EF90E2
:1013F000DF90CF900C944C1464E172E08FE995E09B
:101400000E943A1467E072E08FE995E00E94C313EE
:10141000BE018FE995E00E941D1469EF71E08FE92C
:1014200095E00E943A146DEE71E08FE995E00E941C
:101430003A1465ED71E08FE995E00E94C3134C8D7D
:101440005D8D6E8D7F8D20E030E08FE995E00E940C
:10145000181668EC71E08FE995E00E943A1461EB90
:1014600071E08FE995E00E94C31348A159A16AA1D8
:101470007BA121E030E08FE995E00E94181665EA33
:1014800071E08FE995E00E943A1468E971E08FE914
:1014900095E00E943A1460E971E08FE995E00E94BE
:1014A0003A1469E771E08FE995E00E94C3134CA1FB
:1014B0005DA16EA17FA121E030E08FE995E00E945F
:1014C00018166DE671E08FE995E00E943A146BE51D
:1014D00071E08FE995E00E94C31348A559A56AA55C
:1014E0007BA520E030E08FE995E00E94181661E5C9
:1014F00071E08FE995E00E943A1468E471E08FE9A9
:1015000095E00E943A148E01045D1F4FE12CF12CEE
:10151000C090AE04D090AF042496EC14FD04CCF53A
:1015200061E471E08FE995E00E943A1466E371E0AE
:101530008FE995E00E94C313B8018FE995E00E94FE
:101540001D146AE271E08FE995E00E943A1462E1AD
:1015500071E08FE995E00E94C3134CA95DA96EA9C3
:101560007FA921E030E08FE995E00E94181665E040
:1015700071E08FE995E00E943A146DEF70E08FE919
:1015800095E00E943A148FEFE81AF80A0D5F1F4F9A
:10159000BFCF84E0C816D10454F46EEA70E08FE93E
:1015A00095E00E943A148FEFC81AD80AF2CF64EA85
:1015B00070E08FE995E0DF91CF911F910F91FF903F
:1015C000EF90DF90CF900C943A14DF91CF911F9160
:1015D0000F91FF90EF90DF90CF9008958F929F92A0
:1015E000AF92BF92CF92EF920F931F93CF93DF935F
:1015F000CDB7DEB760970FB6F894DEBF0FBECDBF94
:101600005C0102960E946528182FC50105960E946C
:101610006528482FC5010896488B0E946528282F09
:10162000C5010B962F870E946528082FC5010E96CD
:101630000E946528E82EC50141960E946528C82EA3
:101640004889149FD00111242F852A9FF0012B9FD8
:10165000F00D1124EF2B91F46CE371E08FE995E02C
:101660000E941D14B5018FE995E00E941D1462E7E8
:1016700071E08FE995E00E944C1429C08091B40478
:10168000612F70E0882381F01F921F921F921F929A
:10169000812C912C5401CE0101960E94D828CE01B4
:1016A00001960E94112A0FC01F921F921F921F9233
:1016B000812C912C5401CE0101960E94D828CE0194
:1016C00001960E94522B0F900F900F900F906096F2
:1016D0000FB6F894DEBF0FBECDBFDF91CF911F9143
:1016E0000F91EF90CF90BF90AF909F908F90089503
:1016F0000F931F93CF93DF93CDB7DEB76C970FB6E1
:10170000F894DEBF0FBECDBF182F092F40E050E088
:10171000BA01CE0101960E947A288091B4048823F0
:1017200029F0CE010F960E94992A04C0CE010F968F
:101730000E94732B2EE0FE013F96DE011196019070
:101740000D922A95E1F71F921F928E811F928F931F
:101750008D811F928F938C811F928F938B811F920B
:101760008F938A811F928F93298130E02053384FC5
:101770003F932F9324E731E03F932F930F931F93D1
:101780000E9439340FB6F894DEBF0FBECDBF6C9601
:101790000FB6F894DEBF0FBECDBFDF91CF911F9182
:1017A0000F9108958F929F92AF92BF92CF92DF9246
:1017B000EF92FF920F931F93CF93DF93CDB7DEB7D6
:1017C00029970FB6F894DEBF0FBECDBF8C010E94E3
:1017D000780B8091B104882321F080EF94E00E947F
:1017E00062308091B2048823E1F085E495E00E94A4
:1017F000142EF801648F758F868F978F85E495E09E
:101800000E94352DF801608F718F828F938F85E450
:1018100095E00E94812FF80160A371A382A393A396
:101820000DC0F801148E158E168E178E108E118E27
:10183000128E138E10A211A212A213A28091B304D1
:101840008823A1F061E08FEF94E00E94FB20F80173
:1018500064A375A386A397A38FEF94E00E946021F1
:10186000F80160A771A782A793A709C0F80114A285
:1018700015A216A217A210A611A612A613A6809151
:10188000B104882309F442C0E0910101F0E0EE0FB9
:10189000FF1FE65CFC4F6081718180EF94E00E9445
:1018A0007A3095EB892E94E0992E5801C12CD12CD9
:1018B000E12CF12CE4E0AE0EB11CF3E0CF0ED11C14
:1018C0008091AE049091AF04E816F906FCF420E094
:1018D000AE014F5F5F4FB40180EF94E00E94FC3097
:1018E0000E949731F50164AB75AB86AB97AB8B81EA
:1018F000F801EC0DFD1D81A78C8182A713A6FFEFD7
:10190000EF1AFF0A8BE0880E911CD4CF29960FB6F0
:10191000F894DEBF0FBECDBFDF91CF911F910F9125
:10192000FF90EF90DF90CF90BF90AF909F908F90FF
:101930000895CF92DF92EF92FF920F931F93CF9370
:10194000DF93EC018091B004882309F4FEC08091FC
:10195000AD048823C9F120E040E060E083E195E038
:101960000E940B2820E030E040E050E063EA74E0A1
:1019700083E195E00E941F282EE130E040E050E036
:1019800062E974E083E195E00E941F282CE330E0D7
:1019900040E050E061E874E083E195E00E941F2898
:1019A0002AE530E040E050E069E774E083E195E04B
:1019B0000E941F2828E730E040E050E06FE674E026
:1019C00083E195E00E941F28E3EAF4E080E090E0E4
:1019D000DE01A80FB91F1B962C9121930196883028
:1019E0009105B1F71092AB046C8D7D8D8E8D9F8D1E
:1019F0000AE514E020E046E00E94E633C8019F9328
:101A00000F9383E991E09F938F938FE694E09F93E8
:101A10008F930E94393468AD79AD8AAD9BAD05E5F1
:101A200014E021E043E00E94E6336801DF920F9367
:101A3000CE018C969F938F9329E9E22E21E0F22E1E
:101A4000FF92EF9282E994E09F938F930E94393442
:101A50006CAD7DAD8EAD9FAD21E043E00E94E633DD
:101A6000DF920F93CE018F969F938F93FF92EF9209
:101A700081E894E09F938F930E94393487EF80939D
:101A800088048093990468A579A58AA59BA500E59B
:101A900014E020E042E00E94E633C8019F930F93D8
:101AA00081EA91E09F938F9389E794E09F938F93CE
:101AB0000E9439342FEF4FEF6FE783E195E00E94EA
:101AC0000B2820E030E040E050E063EA74E083E17E
:101AD00095E00E941F2828E730E040E050E06FE6E4
:101AE00074E083E195E00E941F282FEF4FE76FEF2E
:101AF00083E195E00E940B282EE130E040E050E0C9
:101B000062E974E083E195E00E941F282CE330E055
:101B100040E050E061E874E083E195E00E941F2816
:101B20002AE530E040E050E069E774E083E195E0C9
:101B30000E941F2881E08093AD048DB79EB74C961C
:101B40000FB6F8949EBF0FBE8DBFDF91CF911F914E
:101B50000F91FF90EF90DF90CF900895CF92DF929A
:101B6000EF92FF920F931F93CF93DF93182F062FBF
:101B7000E42E60E08AE00E94261360E089E00E9483
:101B8000261361E08BE00E94ED12C8E0D0E0612FE7
:101B9000661F6627661F8BE00E94261361E08DE0BA
:101BA0000E94261360E08DE00E942613110F2197FA
:101BB000209769F701110DC061E08AE00E942613A9
:101BC00061E089E00E94261360E070E080E090E030
:101BD00040C062E08BE00E94ED1261E089E00E946B
:101BE0002613C0E0D0E0F12CCE15DF0554F461E0FF
:101BF0008DE00E94261360E08DE00E94261321965E
:101C0000F3CFC0E0D0E0C12CD12C760110E0C0179A
:101C1000D107ACF4CC0CDD1CEE1CFF1C8BE00E9449
:101C20005C13019711F46894C0F861E08DE00E94A4
:101C3000261360E08DE00E9426132196E8CF61E034
:101C40008BE00E94ED1261E08AE00E942613B6014B
:101C5000C701DF91CF911F910F91FF90EF90DF901F
:101C6000CF90089561E08AE00E94ED1261E08DE07E
:101C70000E94ED1261E08BE00E94ED1262E08CE0C8
:101C80000E94ED1261E089E00E94ED1261E088E0BF
:101C90000E94ED1261E088E00E94261360E088E077
:101CA0000E94261362E370E080E090E00E945812E8
:101CB00061E088E00E94261362E370E080E090E03B
:101CC0000E94581241E068E184E00E94AE0D603F3E
:101CD00029E872072CE78207910541F066367048C3
:101CE0008445910531F482E090E0089581E090E030
:101CF000089580E090E0089569EA71E089E495E054
:101D00000E94DE1661EB71E080E595E00E94DE1630
:101D100068EB71E087E595E00E94DE166FEB71E0FD
:101D20008EE595E00E94DE1663EC71E085E695E0B5
:101D30000E94DE166CEC71E08CE695E00E94DE16E7
:101D400064ED71E083E795E00E94DE166AED71E0D4
:101D50008AE795E00E94DE166FED71E081E895E07C
:101D60000E94DE1667EE71E088E895E00E94DE16BC
:101D70006FEE71E08FE895E00E94DE1685E495E055
:101D80000E949B2B28E049E06AE083E195E00E94F5
:101D9000241A26E046E162E08FEF94E00E94771F6C
:101DA00065E080EF94E00C94F62FCF93DF93C6E9C3
:101DB000D5E02797CE010E94701685E0C934D80778
:101DC000C1F7DF91CF910895DF92EF92FF920F93C9
:101DD0001F93CF93DF93CDB7DEB72E970FB6F8944E
:101DE000DEBF0FBECDBF26E040E855E260E070E008
:101DF0008FE995E00E9448196CEF71E08FE995E05A
:101E00000E944C140E94320E21E0892B09F420E03C
:101E10002093B004211106C068E072E08FE995E0DC
:101E20000E944C148091B0048823E1F083E195E096
:101E30000E94381A20E040E060E083E195E00E94D3
:101E4000FC2760E083E195E00E945F252FEF4FEFD4
:101E50006FEF83E195E00E940B2862E083E195E05B
:101E60000E94DF2789E496E00E94441A61E089E439
:101E700096E00E94551A0E94F92986E495E00E9496
:101E8000FB298093B404811112C06BE673E08FE9E3
:101E900095E00E943A144CE152E065E272E0CE0116
:101EA00001960E940629CE0101960E94522BCE0176
:101EB00001960E949B2B85E495E00E94B42F8093AD
:101EC000B204882369F06091040185E495E00E94E2
:101ED000DA2C60E070E085E495E00E94F62D06C003
:101EE00069E473E08FE995E00E943A148FEF94E083
:101EF0000E949C1F60ED77E080E090E00E94581205
:101F00008FEF94E00E94F71F8093B304811106C005
:101F10006BE273E08FE995E00E943A1480EF94E061
:101F20000E94C0308093B104811107C06AE073E061
:101F30008FE995E00E943A1435C080EF94E00E944A
:101F4000371D80EF94E00E94991E6AEF70E080E0F8
:101F500090E00E9458121092AF041092AE044BE031
:101F6000F42E8091AE049091AF04843091050CF072
:101F70007DC0F89EB001F99E700D11246B547B4F0B
:101F800041E080EF94E00E94CE1E81111EC06EC021
:101F900080EF94E00E94991E6AEF70E080E090E08C
:101FA0000E94581264ED72E08FE995E00E943A14A5
:101FB0008FE995E00E943818181619060CF0AFC08A
:101FC0008FE995E00E946118F3CF2091AE04309123
:101FD000AF04F29EC001F39E900D112467E08B5474
:101FE0009B4F0E946B1FD82E2091AE043091AF04FE
:101FF000F29E8001F39E100D11240B541B4FF8012B
:10200000E780608180EF94E00E94A830F80191871A
:1020100080872091AE043091AF04DE100CC0F29E98
:10202000F001F39EF00D1124EB54FB4F8085918558
:102030008B7F892B79F4C90101979093AF0480932A
:10204000AE04F29EF001F39EF00D1124EB54FB4F11
:10205000128602C081E082878091AE049091AF0425
:1020600001969093AF048093AE047BCF8091AE0431
:102070009091AF041816190644F061E372E08FE9FD
:1020800095E00E944C141092B1048091AE0490919E
:10209000AF04049714F16AE572E08FE995E00E94BD
:1020A0004C1469E972E08FE995E00E941D1460917B
:1020B000AE047091AF04615071097093AF046093E6
:1020C000AE044AE050E08FE995E00E9401156CEA09
:1020D00072E08FE995E00E941D1405EB14E0E12CFD
:1020E000F12C8091AE049091AF04E816F9060CF043
:1020F0004FCF80EF94E00E94371DB80180EF94E04D
:102100000E94711E40910101B80180EF94E00E948D
:1021100002308FEFE81AF80A055F1F4FE2CF2E96C4
:102120000FB6F894DEBF0FBECDBFDF91CF911F91E8
:102130000F91FF90EF90DF900895AF92BF92CF92F2
:10214000DF92EF92FF920F931F93CF93DF93CDB760
:10215000DEB7CD55D1090FB6F894DEBF0FBECDBFA7
:1021600040E050E0BA01CE01875B9F4F0E947A2881
:1021700068E271E0CE01895A9F4F0E94DE160E94EC
:1021800029126B017C016093EC047093ED04809341
:10219000EE049093EF0480910001882349F00B3006
:1021A000110508F0A3C0F801EC5CFF4F0C94763BDE
:1021B0008091AC048111F3CF8FE995E00E9438182B
:1021C00021E0181619060CF020E02093AC04211130
:1021D000A8C00E9429126C197D098E099F0921E06F
:1021E00061367A4E8105910508F420E020930001C4
:1021F000222309F4DDC095C06DEC72E05BC0CE0116
:1022000001960E94D20BCE0101960E94990C8091FA
:10221000000181116BC0BE016F5F7F4F8091020191
:10222000909103010E947A0861C081E090E002C0B1
:1022300082E090E0909303018093020157C083E015
:1022400090E090930301809302016DEB72E08FE9BF
:1022500095E00E943A1460E972E08FE995E00E94EF
:102260003A1466E872E006C010920301109202016F
:102270006BE772E08FE995E00E943A1437C069ED90
:1022800072E08FE995E00E941D1409E415E0B801A1
:102290008FE995E00E94E8136BEE72E08FE995E01C
:1022A0000E941D14095F1F4F35E00F38130779F79F
:1022B0006BEC72E08FE995E00E944C1417C048E087
:1022C00050E0BE01695A7F4FCE0101960E940B1863
:1022D00089819A810E94EE0ACE0101960E947016B1
:1022E00005C0E0914705F091480509951092AC04AE
:1022F00010920001CE01895A9F4F0E947016C35A56
:10230000DF4F0FB6F894DEBF0FBECDBFDF91CF9188
:102310001F910F91FF90EF90DF90CF90BF90AF9003
:1023200008958091AC04882309F43FC04AE06FE926
:1023300075E0CE0101960E944816BE016F5F7F4F87
:10234000CE01895A9F4F0E94F516CE0101960E9438
:102350007016CE01895A9F4F0E9417186BEC72E0DD
:10236000CE01895A9F4F0E946317882339F06AED86
:1023700071E0CE01895A9F4F0E940C1759E4A52E97
:1023800055E0B52E00E010E0B501CE01895A9F4F0F
:102390000E94A6178111FFCE0F5F1F4F87E0A80E86
:1023A000B11C0A30110581F7F6CE01E010E0F3CE42
:1023B00061E070E080E090E00E945812FDCE1F9234
:1023C0000F920FB60F9211242F933F938F939F93E9
:1023D000AF93BF938091970590919805A09199052F
:1023E000B0919A053091960523E0230F2D3720F404
:1023F0000196A11DB11D05C026E8230F0296A11D5F
:10240000B11D209396058093970590939805A0930E
:102410009905B0939A0580919B0590919C05A09198
:102420009D05B0919E050196A11DB11D80939B0550
:1024300090939C05A0939D05B0939E05BF91AF918D
:102440009F918F913F912F910F900FBE0F901F90F2
:1024500018952FB7F8946091970570919805809121
:10246000990590919A052FBF08953FB7F8948091F0
:102470009B0590919C05A0919D05B0919E0526B568
:10248000A89B05C02F3F19F00196A11DB11D3FBFAC
:102490006627782F892F9A2F620F711D811D911D3C
:1024A00042E0660F771F881F991F4A95D1F708955C
:1024B000CF92DF92EF92FF92CF93DF936B017C017B
:1024C0000E943512EB01C114D104E104F10479F04A
:1024D0000E9435126C1B7D0B683E7340A0F381E0B7
:1024E000C81AD108E108F108C851DC4FECCFDF91E0
:1024F000CF91FF90EF90DF90CF90089501970097D4
:1025000039F0880F991F880F991F02970197F1F7EB
:102510000895789484B5826084BD84B5816084BD5B
:1025200085B5826085BD85B5816085BDEEE6F0E04C
:10253000808181608083E1E8F0E0108280818260A8
:102540008083808181608083E0E8F0E08081816029
:102550008083E1EBF0E0808184608083E0EBF0E059
:10256000808181608083EAE7F0E0808184608083FD
:1025700080818260808380818160808380818068A7
:1025800080831092C1000895833081F028F4813057
:1025900099F08230A1F008958630A9F08730B9F023
:1025A0008430D1F4809180008F7D03C080918000C1
:1025B0008F7780938000089584B58F7702C084B5AB
:1025C0008F7D84BD08958091B0008F7703C0809186
:1025D000B0008F7D8093B0000895CF93DF9390E09B
:1025E000FC01E355FC4F2491FC01EF53FC4F849117
:1025F000882349F190E0880F991FFC01E751FC4FB7
:10260000A591B49181529C4FFC01C591D4919FB783
:10261000611108C0F8948C91209582238C93888155
:1026200082230AC0623051F4F8948C91322F309595
:1026300083238C938881822B888304C0F8948C91A7
:10264000822B8C939FBFDF91CF9108950F931F939F
:10265000CF93DF931F92CDB7DEB7282F30E0F9017B
:10266000E756FC4F8491F901E355FC4F1491F901B1
:10267000EF53FC4F04910023C9F0882321F06983B4
:102680000E94C4126981E02FF0E0EE0FFF1FE152BB
:10269000FC4FA591B4919FB7F8948C91611103C040
:1026A0001095812301C0812B8C939FBF0F90DF91E8
:1026B000CF911F910F910895CF93DF93282F30E092
:1026C000F901E756FC4F8491F901E355FC4FD49191
:1026D000F901EF53FC4FC491CC2391F081110E947A
:1026E000C412EC2FF0E0EE0FFF1FEB52FC4FA59150
:1026F000B4912C912D2381E090E021F480E002C080
:1027000080E090E0DF91CF910895CF92DF92EF9239
:10271000FF920F931F93CF93DF936C017A01EB012C
:10272000E60EF71E00E010E0CE15DF0561F06991BE
:10273000D601ED91FC910190F081E02DC601099543
:10274000080F191FF1CFC801DF91CF911F910F9191
:10275000FF90EF90DF90CF9008956115710581F0A3
:10276000DB010D900020E9F7AD0141505109461BF6
:10277000570BDC01ED91FC910280F381E02D09946F
:1027800080E090E00895EF92FF920F931F93CF9314
:10279000DF938C01FB01C0E0D0E064917F018FEFFB
:1027A000E81AF80A662361F0D801ED91FC910190D6
:1027B000F081E02DC8010995C80FD91FF701EDCFB1
:1027C000CE01DF91CF911F910F91FF90EF9008956F
:1027D000AF92BF92CF92DF92EF92FF920F931F932F
:1027E000CF93DF937C016B01C0E0D0E000E010E00C
:1027F000D60114968D919C911597C817D90788F426
:10280000D701ED91FC91A080B180BE01C6010E946C
:10281000B517682FC701F5010995080F191F2196F3
:10282000E7CFC801DF91CF911F910F91FF90EF90FB
:10283000DF90CF90BF90AF9008950C94AD13DC0162
:10284000ED91FC910190F081E02D09940F931F937D
:10285000CF93DF93EC016DE00E941F148C016AE0BE
:10286000CE010E941F14800F911FDF91CF911F9105
:102870000F9108950F931F93CF93DF93EC010E9464
:10288000C3138C01CE010E942614800F911FDF918B
:10289000CF911F910F9108950F931F93CF93DF93C3
:1028A000EC010E94AD138C01CE010E942614800F12
:1028B000911FDF91CF911F910F9108958F929F9259
:1028C000AF92BF92CF92DF92EF92FF920F931F933E
:1028D000CF93DF93CDB7DEB7A1970FB6F894DEBFE5
:1028E0000FBECDBF7C01C42EE52FCB01D22E19A285
:1028F00021E02D1510F02AE0D22E8E010F5D1F4F22
:102900008D2C912CA12CB12C6C2D7E2FA501940126
:102910000E94543B8C2DD29E801911240150110924
:102920008A3014F4805D01C0895CF8018083211530
:1029300031054105510521F0C22EE32FCA01E4CF34
:10294000B801C7010E94AD13A1960FB6F894DEBF7F
:102950000FBECDBFDF91CF911F910F91FF90EF90F0
:10296000DF90CF90BF90AF909F908F900895CF92BF
:10297000DF92EF92FF920F931F93CF93DF93EC01BF
:102980006A017B012115310579F4E881F981019013
:10299000F081E02D642FDF91CF911F910F91FF9077
:1029A000EF90DF90CF9009942A303105E9F477FF5A
:1029B0001AC06DE20E941F148C0144275527BA01EA
:1029C0004C195D096E097F092AE0CE010E945E1450
:1029D000800F911FDF91CF911F910F91FF90EF908A
:1029E000DF90CF9008952AE0B701A601CE01DF91D4
:1029F000CF911F910F91FF90EF90DF90CF900C94AB
:102A00005E149A01AB01662757FD6095762F0C94F2
:102A1000B7142115310541F4DC01ED91FC910190D1
:102A2000F081E02D642F09940C945E140F931F9392
:102A3000CF93DF93EC019A01462F50E060E070E005
:102A40000E9409158C01CE010E942614800F911F4F
:102A5000DF91CF911F910F9108954F925F926F92E6
:102A60007F928F929F92AF92BF92CF92DF92EF921E
:102A7000FF920F931F93CF93DF93EC016A017B01C9
:102A8000B22E9A01AB01C701B6010E9476368823A7
:102A900019F062E473E027C026013701E89477F863
:102AA0002FEF3FEF4FE75FE7C301B2010E94763699
:102AB00081110DC02FEF3FEF4FE75FE7C301B20178
:102AC0000E94C03418161CF466E473E00CC02FEFAB
:102AD0003FEF4FE75FE4C701B6010E940F361816BB
:102AE000ACF46AE473E0CE01DF91CF911F910F91B6
:102AF000FF90EF90DF90CF90BF90AF909F908F901E
:102B00007F906F905F904F900C94AD132FEF3FEF3D
:102B10004FE75FECC701B6010E94C03487FDE1CFEB
:102B200020E030E0A901C701B6010E94C03487FF50
:102B30000AC06DE2CE010E941F148C01F7FAF094D6
:102B4000F7F8F09402C000E010E0A12C60E070E023
:102B500080E09FE3AB1441F020E030E040E251E43C
:102B60000E94C434A394F6CF9B01AC01C701B60107
:102B70000E945C346B017C010E9431352B013C01C9
:102B80000E945D359B01AC01C701B6010E945B3418
:102B90006B017C012AE0B301A201CE010E945E1408
:102BA000080F191FBB2039F069EC72E0CE010E94BA
:102BB000AD13080F191F7B2C772041F120E030E086
:102BC00040E251E4C701B6010E9413366B017C015B
:102BD0000E942C354B01AA2497FCA094BA2C2AE021
:102BE00030E0B501A401CE010E94B714080F191FEF
:102BF000C501B4010E945F359B01AC01C701B6015C
:102C00000E945B346B017C017A94D6CFC801DF91BE
:102C1000CF911F910F91FF90EF90DF90CF90BF90D9
:102C2000AF909F908F907F906F905F904F9008959E
:102C30000C942D150F931F93CF93DF93EC010E94FB
:102C40002912688779878A879B87E881F9810680BE
:102C5000F781E02DCE01099597FF15C00E9429123A
:102C6000088519852A853B85601B710B820B930BA8
:102C70000C811D812E813F816017710782079307A8
:102C800020F38FEF9FEFDF91CF911F910F91089568
:102C9000EF92FF920F931F93CF93DF93EC018B0181
:102CA000E42E68E271E00E94DE16C8010E941A1646
:102CB000FF24E7FCF09497FD0BC08E159F0541F0B3
:102CC000682FCE010E945017C8010E941A16F3CF38
:102CD000CE01DF91CF911F910F91FF90EF9008955A
:102CE000FC01808191810C942533CF93DF93EC011B
:102CF00088819981009711F00E94253319821882EA
:102D00001D821C821B821A82DF91CF9108950F933E
:102D10001F93CF93DF93EC018B016F5F7F4F88810F
:102D200099810E94A431009731F0998388831B8395
:102D30000A8381E001C080E0DF91CF911F910F9164
:102D40000895CF93DF93EC0188819981892B29F035
:102D50008A819B818617970760F4CE010E948716AF
:102D6000882341F08C819D81892B19F4E881F981B8
:102D7000108281E0DF91CF910895EF92FF920F933F
:102D80001F93CF93DF93EC017B018A01BA010E946C
:102D9000A116811104C0CE010E94751607C01D83C3
:102DA0000C83B701888199810E942434CE01DF9180
:102DB000CF911F910F91FF90EF900895FC01118228
:102DC0001082138212821582148216826115710597
:102DD00059F0FB0101900020E9F7AF014150510982
:102DE000461B570B0C94BD160895CF93DF93EC014F
:102DF000FB018617970761F060817181611571058C
:102E000029F0448155810E94BD1602C00E947516AA
:102E1000CE01DF91CF910895CF93DF93EC0161153F
:102E2000710561F0FB0101900020E9F7AF0141500D
:102E30005109461B570B0E94BD1602C00E94751611
:102E4000CE01DF91CF910895EF92FF920F931F93E0
:102E5000CF93DF93EC017B010C811D81611571051E
:102E600011F480E016C04115510591F0040F151FB3
:102E7000B8010E94A1168823A1F3288139818C8191
:102E80009D81B701820F931F0E9424341D830C8300
:102E900081E0DF91CF911F910F91FF90EF90089506
:102EA000CF93DF9300D0CDB7DEB769831A8241E0BC
:102EB00050E0BE016F5F7F4F0E9424170F900F906C
:102EC000DF91CF910895FC0124813581232B31F4CA
:102ED00021E061157105A1F0FB0108C0FC018081B2
:102EE00091816115710531F421E0FC018081882315
:102EF00039F005C00E941B3421E0892B09F020E045
:102F0000822F0895FA01DB0114964D915C9115977B
:102F1000DC0114962D913C911597241B350B2E172F
:102F20003F0788F08D919C91009769F0DB016D91CE
:102F30007C916115710539F08E0F9F1F0E942B3413
:102F400021E0892B09F020E0822F0895FC014481C3
:102F50005581FB01248135814217530720F040E061
:102F600050E00C94821780E00895FC0124813581A3
:102F70006217730748F480819181009729F0FC0162
:102F8000E60FF71F8081089580E00895BF92CF92E9
:102F9000DF92EF92FF920F931F93CF93DF936C0119
:102FA0007B01EA0189012417350720F48D2FE901FF
:102FB000042F182F68E271E0C6010E94DE16D701C7
:102FC00014968D919C9115978C179D07C8F08017CA
:102FD000910708F48C01D701ED91FC911197E00F56
:102FE000F11FB08010826D917C916C0F7D1FC60126
:102FF0000E940C17D701ED91FC91E00FF11FB082F8
:10300000C601DF91CF911F910F91FF90EF90DF905C
:10301000CF90BF900895CF93DF93EC01FB01248103
:1030200035810E94C617CE01DF91CF910895CF93CD
:10303000DF93FC01C081D181209751F088818823E2
:1030400039F0992787FD90950E940A348993F6CF2D
:10305000DF91CF9108950E9489120E94E40EC4E08E
:10306000D9E10E949D102097E1F30E940419F9CF45
:10307000FC0124853585F901E05CFF4F8081918159
:10308000329620813181821B930B8F73992708958B
:10309000FC0184859585FC01E05CFF4F40815181F6
:1030A0003296208131814217530741F00190F0811F
:1030B000E02DE80FF91F808190E008958FEF9FEFDA
:1030C0000895FC0184859585FC01E05CFF4F4081FB
:1030D00051813296208131814217530779F0A081C6
:1030E000B181A80FB91F8C91208131812F5F3F4F93
:1030F0002F7333273183208390E008958FEF9FEF64
:103100000895FC0181A1882329F0A489B5898C91B7
:1031100086FFFBCF11A20895CF93DF93FC01268594
:103120003785D901A05CBF4F8D919C911197019675
:103130008F739927E901CE5BDF4F4881598184174E
:103140009507D9F30D90BC91A02DA20FB31F6C93DE
:10315000A685B785A05CBF4F11969C938E93A689D8
:10316000B7892C9181E090E0078C02C0880F991FED
:103170000A94E2F7282B2C9381E081A30488F58937
:10318000E02D80818064808381E090E0DF91CF91A9
:10319000089508951F920F920FB60F9211242F9346
:1031A0003F934F938F939F93EF93FF938091C00032
:1031B00082FD1CC04091C600809145069091460654
:1031C00001968F7399272091470630914806821700
:1031D000930771F0E0914506F0914606EB5FF94FD9
:1031E0004083909346068093450602C08091C600B6
:1031F000FF91EF919F918F914F913F912F910F9060
:103200000FBE0F901F9018958FE995E00E94381817
:10321000892B11F00C94C91808951F920F920FB6C4
:103220000F9211242F933F938F939F93EF93FF93CC
:1032300020910106309102068091030690910406C8
:103240002817390731F48091C1008F7D8093C10028
:1032500014C0E0910306F0910406EF53FA4F208169
:10326000809103069091040601968F73992790939D
:103270000406809303062093C600FF91EF919F916F
:103280008F913F912F910F900FBE0F901F90189527
:10329000BF92CF92DF92EF92FF92CF93DF93EC0138
:1032A0006A017B01B22E411581EE58076105710557
:1032B000F9F0EC89FD8981E090E008A002C0880F58
:1032C000991F0A94E2F7808360E079E08DE390E053
:1032D000A70196010E94543B21503109410951092F
:1032E0005695479537952795211580E1380798F031
:1032F000EC89FD89108260E874E88EE190E0A70116
:1033000096010E94543B21503109410951095695BB
:10331000479537952795E889F9893083EA89FB89AC
:103320002083E88DF98DB082EE89FF89408181E0AC
:1033300090E09C010C8C02C0220F331F0A94E2F72C
:10334000422B4083EE89FF8940819C010D8C02C095
:10335000220F331F0A94E2F7422B4083EE89FF8944
:1033600040819C010E8C02C0220F331F0A94E2F7A9
:10337000422B4083EE89FF8920810F8C02C0880F89
:10338000991F0A94E2F7809582238083DF91CF9181
:10339000FF90EF90DF90CF90BF9008951092A2051C
:1033A0001092A10588EE93E0A0E0B0E08093A30521
:1033B0009093A405A093A505B093A60582E593E09C
:1033C0009093A00580939F0585E096E09093AC05CF
:1033D0008093AB0581EC95E09093AE058093AD05AD
:1033E00085EC90E09093B0058093AF0584EC90E07D
:1033F0009093B2058093B10580EC90E09093B40572
:103400008093B30581EC90E09093B6058093B50569
:1034100082EC90E09093B8058093B70586EC90E03D
:103420009093BA058093B90584E08093BB0583E04F
:103430008093BC0587E08093BD0585E08093BE0541
:1034400081E08093BF050895CF93DF93EC010E9444
:10345000D62182E693E09983888380EA90E0998779
:10346000888780E890E09B878A87DF91CF910895D5
:10347000CF93DF93EC0161E00E94682361E0CE010D
:10348000DF91CF910C945F25449A459AE9EBF0E0E7
:1034900080818E7F808380818D7F808388E480938C
:1034A000B80084E48093BC000895611102C088E4F0
:1034B00001C08CE08093B8000895CF92DF92EF9224
:1034C000FF920F931F930E9429126B017C0184EAE3
:1034D0008093BC0080916B0690916C062091BC009B
:1034E00027FD1BC00097D1F30E9429126C197D099A
:1034F0008E099F0940916B0650916C068A0120E06D
:1035000030E0601771078207930720F31092BC0028
:1035100084E48093BC0081E01CC08091B900887F66
:10352000883029F08091B900887F803111F480E0E3
:1035300010C08091B900887F883341F48091B90030
:103540001092BC0094E49093BC0002C08091B9003A
:10355000887F1F910F91FF90EF90DF90CF9008959B
:10356000CF92DF92EF92FF920F931F93CF93C62FCC
:103570000E9429126B017C01CC2311F084EC01C064
:1035800084E88093BC0080916B0690916C0620913A
:10359000BC0027FD1BC00097D1F30E9429126C19B3
:1035A0007D098E099F0940916B0650916C068A0136
:1035B00020E030E0601771078207930720F3109234
:1035C000BC0084E48093BC0081E010C08091B9000D
:1035D000887F883341F48091B9001092BC0094E454
:1035E0009093BC0002C08091B900887FCF911F9159
:1035F0000F91FF90EF90DF90CF900895CF92DF92E0
:10360000EF92FF920F931F930E9429126B017C018E
:1036100084E98093BC0080916B0690916C062091A8
:10362000BC0024FF1BC00097D1F30E9429126C1923
:103630007D098E099F0940916B0650916C068A01A5
:1036400020E030E0601771078207930720F31092A3
:10365000BC0084E48093BC0081E001C080E01F9145
:103660000F91FF90EF90DF90CF900895CF92DF926F
:10367000EF92FF920F931F93CF93DF93EC01609330
:10368000BB000E9429126B017C0184E88093BC007E
:1036900080916B0690916C062091BC0027FD1BC0A9
:1036A0000097D1F30E9429126C197D098E099F0998
:1036B00020916B0630916C06890120E030E06017A4
:1036C00071078207930720F31092BC0084E4809373
:1036D000BC0081E024C08091B900887F883129F046
:1036E0008091B900887F803411F480E018C0109177
:1036F000B900187F8091B900887F803229F08091CD
:10370000B900887F883429F4CE010E94FE1A812FE7
:1037100006C01092BC0084E48093BC00F8CFDF9117
:10372000CF911F910F91FF90EF90DF90CF90089570
:10373000AF92BF92DF92EF92FF920F931F93CF93BE
:10374000DF931F92CDB7DEB75C01E42ED22EF32EAD
:1037500010926F0610926E06411102C0EE24E3949F
:103760008FEF8E0DF50181831082C50169830E9460
:103770005D1AF50180836981811144C0660F6F5F16
:10378000C5010E94361BF5018083811104C00D2DF7
:103790001F2DF12C1AC08130A9F585E033C060E0FF
:1037A000C5010E94B01AF50180838130D1F08835BF
:1037B00049F58091BB00F80181938F01F394F09259
:1037C0006F06F0926D06FE1489F0F5018181F816FE
:1037D00031F361E0C5010E94B01AF50180838130A8
:1037E00011F486E00FC0803521F30CC0C5010E94A2
:1037F000FE1AF5018083882321F0813019F487E0D7
:1038000001C080E00F90DF91CF911F910F91FF9049
:10381000EF90DF90BF90AF900895CF92DF92EF923C
:10382000FF920F931F93CF93DF93EC016093BB0044
:103830000E9429126B017C0184E88093BC00809176
:103840006B0690916C062091BC0027FD1BC0009771
:10385000D1F30E9429126C197D098E099F092091CC
:103860006B0630916C06890120E030E0601771072B
:103870008207930720F31092BC0084E48093BC007D
:1038800081E019C08091B900887F883299F0109149
:10389000B900187F8091B900887F803321F4CE0170
:1038A0000E94FE1A05C01092BC0084E48093BC0004
:1038B000812F01C080E0DF91CF911F910F91FF9088
:1038C000EF90DF90CF900895EF92FF920F931F93A8
:1038D000CF93DF931F92CDB7DEB77C01042F122F59
:1038E000FC01108269830E945D1AF701808369815F
:1038F00081112CC0660FC7010E94361BF70180831F
:10390000882321F0813011F582E020C0602FC701AB
:103910000E940D1CF7018083882321F08130B1F4CF
:1039200083E014C0612FC7010E940D1CF701808342
:103930008111F4CFC7010E94FE1AF701808388230A
:1039400021F0813019F487E001C080E00F90DF9111
:10395000CF911F910F91FF90EF9008950C94641CEC
:10396000DF92EF92FF920F931F93CF93DF93EC01BF
:10397000F62EE42ED22E10926F0610926E062111B2
:1039800002C0DD24D3948FEF8D0D89831882CE0180
:103990000E945D1A8883811162C0FF0C6F2DCE01D9
:1039A0000E94361B8883882329F0813009F057C094
:1039B00082E055C06E2DCE010E940D1C88838823A5
:1039C00029F0813009F04BC083E049C0CE010E944C
:1039D0005D1A8883882329F0813009F040C084E093
:1039E0003EC061E06F0DCE010E94361B88838111BD
:1039F00003C0780110E019C0813089F585E02FC03F
:103A000060E0CE010E94B01A88838130C1F0883511
:103A100031F58091BB00F70181937F011F5F109307
:103A20006F0610936D061D1579F08981181741F303
:103A300061E0CE010E94B01A8883813011F486E0E3
:103A40000EC0803531F30BC0CE010E94FE1A888370
:103A5000882321F0813019F487E001C080E0DF91F4
:103A6000CF911F910F91FF90EF90DF900895FF92FB
:103A70000F931F93CF93DF93FC010081C181D2810B
:103A8000F8948981F02EF0948F21898378941DE732
:103A9000115029F182E090E00E947E1288818023FB
:103AA000B9F3F8948A818F218A838981802B898355
:103AB000789480EE91E00E947E12F89489818F21A3
:103AC000898386E490E00E947E128881802311E041
:103AD00009F010E078948AE991E00E947E12812F2B
:103AE000DF91CF911F910F91FF9008951F93CF9376
:103AF000DF93FC011081C181D281912F909560FFED
:103B000012C0F8948A8189238A838981812B8983D1
:103B10008AE090E00E947E128A81812B8A837894C9
:103B200087E390E011C0F8948A8189238A83898190
:103B3000812B898381E490E00E947E128A81812B0F
:103B40008A83789485E090E0DF91CF911F910C9467
:103B50007E120F931F93CF93DF93FC011081C181DD
:103B6000D281F8948981812B89838A81012F0095E4
:103B700080238A8383E090E00E947E1289818023E3
:103B800089838AE090E00E947E12C881789485E360
:103B900090E00E947E121C2381E009F480E0DF9116
:103BA000CF911F910F910895CF92DF92EF92FF92E4
:103BB0000F931F93CF93DF931F92CDB7DEB76C01A6
:103BC000E62E08E010E0FF24F39461E09F2D9E2193
:103BD00009F460E0C60149830E94761DFF0C015084
:103BE000110949810115110581F7411115C0F8949A
:103BF000D6011196ED91FC91129791818C9180954F
:103C0000892381831196ED91FC91129792818C9179
:103C100080958923828378940F90DF91CF911F91B3
:103C20000F91FF90EF90DF90CF900895CF92DF92A9
:103C3000EF92FF920F931F93CF93DF931F92CDB715
:103C4000DEB78C017A016B01E60EF71ECE14DF049D
:103C500051F0D6016D916D0140E0C80129830E94A9
:103C6000D41D2981F3CF211115C0F894D8011196E4
:103C7000ED91FC91129791818C918095892381839C
:103C80001196ED91FC91129792818C9180958923E8
:103C9000828378940F90DF91CF911F910F91FF90C5
:103CA000EF90DF90CF900895EF92FF920F931F93C4
:103CB000CF93DF938C01C8E0D0E0F12CEE24E394A5
:103CC000C8010E94A91D8111FE28EE0C21972097A2
:103CD000B9F78F2DDF91CF911F910F91FF90EF904A
:103CE0000895CF92DF92FF920F931F93CF93DF93AC
:103CF0001F92CDB7DEB78C01F62E40E065E57983E3
:103D00000E94D41DCF2C7981D72E88E0F82EF601A1
:103D100061916F0140E0C8010E94D41DFA94B9F787
:103D20000F90DF91CF911F910F91FF90DF90CF9077
:103D30000895FC0113861586148627E030E0DF0124
:103D4000A20FB31F13961C922115310519F02150B3
:103D50003109F5CF08951F93CF93DF93EC01162F10
:103D600060E0812F0E94ED12612F70E0FB01E355AE
:103D7000FC4FE491E883FB01EF53FC4FE491F0E04A
:103D8000EE0FFF1FEB52FC4F859194919A8389832C
:103D9000CE01DF91CF911F910C94991EAF92BF92EB
:103DA000CF92DF92EF92FF920F931F93CF93DF9307
:103DB0001F92CDB7DEB75C01D62EE72EFC018585BC
:103DC000811164C0C50149830E94371D4981811159
:103DD00005C0F50113861586148671C0442319F0B9
:103DE00040E060EF02C040E06CEEC5010E94D41DCF
:103DF00001E0F12CC12C11E0C5010E94A91D682F22
:103E0000C50169830E94A91D6981613019F481305F
:103E1000B9F433C02F2D30E068131BC0F501838542
:103E2000181730F4E20FF31F8381802349F402C096
:103E3000181731F060E0193058F4F501148708C004
:103E4000F501EF0DF11D8381802B838361E009C0B3
:103E5000C12EF501E20FF31F8381902F90958923E6
:103E60008383C5010E94761D1F5F000F11F4F39438
:103E700001E0F7E0FF1508F0BFCF113438F0F5018D
:103E8000C386C11009C081E0858706C0F50113868D
:103E90001586148680E013C0F50183818823B1F371
:103EA000ED2DFE2D80E090E0D501A80FB91F1396EF
:103EB0002C912193019688309105B1F781E00F9004
:103EC000DF91CF911F910F91FF90EF90DF90CF90F6
:103ED000BF90AF900895DC0180E0615038F0ED9123
:103EE000E827F0E0ED50FC4F8491F7CF0895DC0116
:103EF00016966C93169717964C93179781E05296E7
:103F00008C93529770E0FB01E355FC4FE4911896B7
:103F1000EC931897FB01EF53FC4F649119966C9347
:103F2000199740E85EE360E070E01E964D935D9364
:103F30006D937C9351970895CF93DF93EC0160E0EC
:103F40008E810E94ED1261E08E810E9426131A86F6
:103F50001B861C861D86DF91CF910895AF92BF927C
:103F6000CF92DF92EF92FF920F931F93CF93DF9345
:103F7000EC01A884662311F0BA2C01C0B12CA985EC
:103F8000B0E0AA0FBB1FAB52BC4F40E050E0BA01FB
:103F9000FD0185919491FC0180818A218B1112C0D1
:103FA0008A019B010F5F1F4F2F4F3F4FCE84DF844D
:103FB000E888F9884C155D056E057F0538F4B90170
:103FC000A801E6CF342F252FCB0104C030E020E03C
:103FD00080E090E0632F722FDF91CF911F910F91BE
:103FE000FF90EF90DF90CF90BF90AF900895CF9269
:103FF000DF92EF92FF920F931F93CF93DF93CDB792
:10400000DEB7C054D1400FB6F894DEBF0FBECDBFAF
:104010008C010E942912F801C284D384E484F584BF
:104020006C157D058E059F0520F412861386148677
:104030001586F8012289211112C0C284D384E48438
:10404000F584DC01CB018C199D09AE09BF09803DC7
:104050009740A105B10518F4F8018389BCC0F801A7
:10406000128A0E942912F8016287738784879587D4
:104070001482138212821182108261E086810E9472
:1040800026136AEF70E080E090E00E94581261E031
:10409000F80186810E94ED1260E0F80186810E949D
:1040A000261364E170E080E090E00E945812F894DA
:1040B00061E0F80186810E94261388E290E00E9468
:1040C0007E1260E0F80186810E94ED128AE090E0A5
:1040D0000E947E1260E0C8010E94AE1F672B682B11
:1040E000692B41F061E0C8010E94AE1F672B682B6D
:1040F000692B21F4F801138A78946CC06E01FFEBF0
:10410000CF1AFEEFDF0ACE0101967C0160E0C80104
:104110000E94AE1FF701608371838283938361E005
:10412000C8010E94AE1FF70164837583868397835D
:10413000F8E0EF0EF11CEC14FD0441F77894CE0189
:1041400001967C0120E030E0F701408151816281DD
:10415000738184819581A681B781411551056105DF
:104160007105B1F10097A105B10591F1F901F5953E
:10417000E795F595E795F595E795E00FF11FD08068
:10418000DD0C481759076A077B0710F0D08203C07F
:104190008D2D816080832F5F3F4FF8E0EF0EF11C83
:1041A0002832310589F6F801248130E0408181818F
:1041B00090E0840F911D4281840F911D4381840FF3
:1041C000911D99272817390719F481E0838B03C0C3
:1041D000F801138A80E0C05CDE4F0FB6F894DEBFB2
:1041E0000FBECDBFDF91CF911F910F91FF90EF9048
:1041F000DF90CF900895CF92DF92EF92FF920F93CE
:104200001F93CF93DF93EC01162F0E94F71F882393
:1042100009F449C08F818B3031F008F444C08551D6
:10422000823040F040C06A8170E080E090E00E94FF
:104230005D3524C00A81602F6F7770E080E090E0E8
:104240000E945F3520E030E040E853E40E941336DE
:104250006B017C016B8170E080E090E00E945F3533
:104260009B01AC01C701B6010E945C3420E030E044
:1042700040E251E40E94C43407FD90581123B9F084
:1042800020E030E040E151E40E94133620E030E0CD
:1042900040EA50E40E94C43420E030E040E052E4C0
:1042A0000E945C3404C060E070E080EC9FE7DF9126
:1042B000CF911F910F91FF90EF90DF90CF900895D5
:1042C000CF92DF92EF92FF92CF93DF93EC010E94A7
:1042D000F71F882379F18F818B3029F158F18551AF
:1042E000823040F5688170E080E090E00E945D35AA
:1042F00020E030E040E853E40E9413366B017C017B
:10430000698170E080E090E00E945F359B01AC0124
:10431000C701B6010E945C3420E030E040E251E485
:104320000E94C4340BC0688170E080E090E00E947D
:104330005D3504C060E070E080EC9FE7DF91CF91D5
:10434000FF90EF90DF90CF900895EF92FF920F9340
:104350001F93DC01ED91FC9111971A960D911C9120
:104360001B9718962D913C9119970088F189E02DA3
:104370007B0140E050E060E070E009951F910F91F3
:10438000FF90EF9008959C01207E3770AC01542F70
:104390004427550F550F550F242B352B892F99275F
:1043A000869586958695822B932B0895FC01138222
:1043B00012828CE793E09183808367A340A721A7B3
:1043C00081E0868F13A612A60895FC01868D8823AE
:1043D00031F06EBD0DB407FEFDCF8EB5089588E0B7
:1043E00090E030E8A78DB0A124A5432F462321F00B
:1043F0004C91422B4C9304C04C91209524232C9338
:10440000A1A1B2A12C9145A5242B2C93A1A1B2A1CD
:104410004C9125A5209524232C9336950197009740
:1044200009F70895CF93DF93EC01EDA1FEA19081F0
:104430008FA5809589238083EBA1FCA190818EA517
:10444000809589238083CE010E94E521EBA1FCA108
:1044500080819EA5892B8083DF91CF91089566236B
:1044600011F061E201C060E20C941222CF93DF935D
:10447000EC01EDA1FEA180819FA5892B8083EBA19A
:10448000FCA190818EA5809589238083CE010E9416
:10449000E521EBA1FCA180819EA5892B8083DF9182
:1044A000CF910895AF92BF92CF92DF92EF92FF9299
:1044B0000F931F93CF93DF937C01EB012196FB01B8
:1044C000B490BB2009F435C0FE016491C7010E947D
:1044D00012226E01F2E0CF0ED11CFE013196C49182
:1044E0008C2F8078A82ECF778601DC2FDC0DD0179B
:1044F00041F0F8016491C7010E9436220F5F1F4FFF
:10450000F6CFC6018C0F911DEC01AA2081F08C0121
:104510000F5F1F4FFC01649170E06F3F710511F454
:1045200064EF71E080E090E00E945812E801BA94D4
:10453000C8CFDF91CF911F910F91FF90EF90DF9047
:10454000CF90BF90AF9008950F931F93CF93DF93B9
:10455000EC018B0140EA50E060E870E00E948F259A
:1045600019AA18AA61E088A50E94ED1261E08FA146
:104570000E94ED128FA190E0FC01EF53FC4FE491FB
:10458000F0E0EE0FFF1FE152FC4F259134913CA368
:104590002BA3FC01E355FC4F84918EA788A590E0E6
:1045A000FC01EF53FC4FE491F0E0EE0FFF1FE152EE
:1045B000FC4F259134913EA32DA3FC01E355FC4F04
:1045C00084918FA78E8D882361F00E94B43380E0A0
:1045D0000E94D83381E00E94CA3380E00E94D33326
:1045E0003CC061E08BA50E94ED1261E08AA50E94AB
:1045F000ED128BA590E0FC01EF53FC4FE491F0E04D
:10460000EE0FFF1FE152FC4FA591B491BAA3A9A3ED
:10461000FC01E355FC4F84918DA78AA590E0FC0135
:10462000EF53FC4FE491F0E0EE0FFF1FE152FC4F1F
:104630002591349138A32F8FFC01E355FC4F8491D1
:104640008CA78C919DA5909589238C93EF8DF8A1D3
:1046500090818CA5809589238083EBA1FCA190811A
:104660008EA580958923808389A5882309F161E03F
:104670000E94ED1261E089A50E94261364EF71E0AB
:1046800080E090E00E94581260E089A50E94261305
:1046900064EF71E080E090E00E94581261E089A52B
:1046A0000E94261364EF71E080E090E00E945812AF
:1046B0000115110541F0B801CE01DF91CF911F9195
:1046C0000F910C945222DF91CF911F910F91089579
:1046D0001F93CF93DF93EC01162F68E375E00E94E0
:1046E000A42211110AC06BE275E0CE010E94522291
:1046F00082E088AB81E089AB05C06EE175E0CE0158
:104700000E94522263EF74E0CE010E9452221D8F5C
:10471000DF91CF911F910895EF92FF920F931F9316
:10472000CF93DF9300D0CDB7DEB77C01162F6AE2BE
:1047300029834A830E94122260E0C7010E94362228
:10474000F70160A9610FC7010E94362260E0C7012E
:104750000E943622F70160A92981620FC7010E94D9
:1047600036226BE2C7010E94122260E0C7010E945C
:104770003622F70161A94A81640FC7010E943622DF
:1047800060E0C7010E943622F70161A9600FC701EE
:104790000E9436226CE2C7010F900F90DF91CF91FB
:1047A0001F910F91FF90EF900C941222EF92FF92C5
:1047B0000F931F93CF93DF931F92CDB7DEB77C018A
:1047C000122F77FD48C0FC01A085B1856A177B07D1
:1047D0000CF041C057FD3FC0A285B3854A175B0767
:1047E000D4F501E0040F21E0260F39830E948C23C9
:1047F000D7019596ED91FC91969780819F969C911B
:104800009F97892B80839396ED91FC91949780815B
:104810009E964C919E974095482340835D968C913F
:104820003981823031F4812F932F0E94C321182FB8
:10483000392F632FC7010E94E521612FC7010E9414
:10484000E521D7019396ED91FC91949780819E96F6
:104850009C91892B80830F90DF91CF911F910F91B5
:10486000FF90EF900895DF92EF92FF920F931F93C6
:10487000CF93DF93EC017901D02E88859985681755
:1048800079070CF040C02A853B8542175307DCF5B9
:10489000CA018E0D9F1D281739071CF47901E41AEF
:1048A000F50A0FEF040F0E0D262FCE010E948C2368
:1048B0008D8D823031F48D2D912F0E94C321D82E01
:1048C000192FEDA1FEA180819FA5892B8083EBA1EB
:1048D000FCA190818EA5809589238083E114F10449
:1048E00061F0612FCE010E94E5216D2DCE010E9465
:1048F000E52181E0E81AF108F1CFEBA1FCA180816C
:104900009EA5892B8083DF91CF911F910F91FF90FE
:10491000EF90DF900895DF92EF92FF920F931F9335
:10492000CF93DF93EC017901D02E2885398562176A
:1049300073070CF040C08A859B8548175907DCF542
:10494000CB018E0D9F1D281739071CF47901E61A3B
:10495000F70A2FEF260F2E0D042FCE010E948C2375
:104960008D8D823031F48D2D912F0E94C321D82E50
:10497000192FEDA1FEA180819FA5892B8083EBA13A
:10498000FCA190818EA5809589238083E114F10498
:1049900061F0612FCE010E94E5216D2DCE010E94B4
:1049A000E52181E0E81AF108F1CFEBA1FCA18081BB
:1049B0009EA5892B8083DF91CF911F910F91FF904E
:1049C000EF90DF9008956F927F928F929F92AF92B7
:1049D000BF92CF92DF92EF92FF920F931F93CF93EC
:1049E000DF93EC016B015A014901380128853985B3
:1049F000621773070CF054C08A859B8548175907C6
:104A00000CF04EC0AB01480D591D241735071CF49E
:104A10004901861A970A9501260D371D82179307BB
:104A20001CF43C016A187B088D8D823021F4C7018B
:104A30000E94C3217C010FEF0A0D060D2FEF2C0DF4
:104A4000280D4A2D6C2DCE010E948C23EDA1FEA1D4
:104A500080819FA5892B8083EBA1FCA190818EA5ED
:104A600080958923808316141704A4F464011C1410
:104A70001D0464F46F2DCE010E94E5216E2DCE0140
:104A80000E94E52181E0C81AD108F1CF81E0681ABF
:104A90007108E9CFEBA1FCA180819EA5892B8083C1
:104AA000DF91CF911F910F91FF90EF90DF90CF900A
:104AB000BF90AF909F908F907F906F9008951F93BD
:104AC000CF93DF93EC01162F66E30E941222612F31
:104AD00063706D8B623041F0633089F0613011F0AA
:104AE00068EC03C068EA0CC068E0CE010E94362280
:104AF00080E890E09987888780EA90E00AC068E6BD
:104B0000CE010E94362280EA90E09987888780E86B
:104B100090E09B878A87DF91CF911F910895FC01D8
:104B20007583648371876087578346835387428781
:104B3000158A158614861786168621E0248B8FEF3A
:104B40009FEF938B828B918B808B268B108E178A95
:104B5000218F138E128E148E08952F923F924F92B2
:104B60005F926F927F928F929F92AF92BF92CF92FD
:104B7000DF92EF92FF920F931F93CF93DF9300D0BA
:104B800000D0CDB7DEB74C017C836B836A0159013D
:104B9000C8018701AC014C195D0957FF03C051954D
:104BA0004195510995016B817C81261B370B37FF9D
:104BB00003C031952195310922242394312C2417E7
:104BC000350714F0212C312C2114310459F03A2DE1
:104BD0002B2D5C01832F922F3B812C81DC82CB8299
:104BE000C32ED22EAB81BC81AA16BB065CF43C2D31
:104BF0002D2D6C01832F922F3B812C81BC82AB82A7
:104C0000A32EB22E2501EB81FC814E1A5F0A3C01D6
:104C10006C187D0877FE03C071946194710872016D
:104C200057FE03C0FFEFEF1AFF0AF594E794C8168A
:104C3000D9062CF421E030E03A83298324C06FEFB9
:104C40007FEF7A8369831FC0D401ED91FC910480CA
:104C5000F581E02D980121143104D9F04B815C815C
:104C6000B601C4010995E618F708F7FE06C0E98108
:104C7000FA81CE0EDF1EE40CF51C2B813C812F5FE8
:104C80003F4F3C832B836B817C81A616B706E4F6ED
:104C900004C0A6016B817C81E4CF0F900F900F9030
:104CA0000F90DF91CF911F910F91FF90EF90DF90C8
:104CB000CF90BF90AF909F908F907F906F905F90BC
:104CC0004F903F902F9008956F927F928F929F9276
:104CD000AF92BF92CF92DF92EF92FF920F931F930A
:104CE000CF93DF93EC015B016A0139014801E88150
:104CF000F9810484F585E02D87010995E881F98122
:104D0000A601480D591D415051090484F585E02D37
:104D10009301B501CE010995E881F9810284F385FB
:104D2000E02D9401A601B501CE010995E881F98134
:104D3000B501660D771D615071090284F385E02D80
:104D40009401A601CE010995DF91CF911F910F919A
:104D5000FF90EF90DF90CF90BF90AF909F908F909B
:104D60007F906F9008952F923F924F925F926F9233
:104D70007F928F929F92AF92BF92CF92DF92EF92EB
:104D8000FF920F931F93CF93DF93CDB7DEB72C978E
:104D90000FB6F894DEBF0FBECDBF9C878B873A015C
:104DA00018870F83FA86E986CD82DC0118968D91EB
:104DB0009C911997681779070CF094C01A968D91F9
:104DC0009C911B97481759070CF08CC08C2C912C88
:104DD000CB01B5E0CB9E800D911D1124181619064C
:104DE0000CF080C0C40113E0880F991F1A95E1F7F9
:104DF000840F951F181619060CF074C0F5E02F9F4C
:104E0000200111245B016B011C8292012D583A4F45
:104E10002901461A570A3C81353031F0F201EA0D7A
:104E2000FB1D44914B8301C01B827A82698213016E
:104E30001E828B8180FF13C0AB85BC85ED91FC91F8
:104E4000BD81B13031F40480F581E02D2F813885AA
:104E500019C00088F189E02DEF80F8841EC0E98533
:104E6000FA852F813885E217F307F9F0AB85BC8509
:104E7000ED91FC91BD81B13059F40480F581E02DB4
:104E800029853A85A101B5018B859C8509950DC0C1
:104E90000088F189E02DE984FA8484019401498134
:104EA0005A81B6018B859C850995EB81E695EB834C
:104EB000FE81FF5FFE8329813A81280D391D3A83E7
:104EC00029833FEF231A330AF83009F0B2CF4C811F
:104ED0004F5F4C83C80CD91C8FEFA81AB80A463014
:104EE00009F099CF2C960FB6F894DEBF0FBECDBF58
:104EF000DF91CF911F910F91FF90EF90DF90CF90B6
:104F0000BF90AF909F908F907F906F905F904F90E9
:104F10003F902F900895CF92EF92FF920F931F939F
:104F2000CF93DF93EC01262F6A3049F42C898E85CC
:104F30009F8538E0239F800D911D112432C06D3074
:104F4000A1F1EA88FB88088919894E855F856C85FF
:104F50007D85CC880E94B3262C89422F50E08C8519
:104F60009D8536E0239F800D911D11249D878C87A0
:104F70002E892223D1F06AEF64039001659F300DE2
:104F8000112468857985260F371F281739076CF497
:104F900003E0440F551F0A95E1F78E859F85840F26
:104FA000951F9F878E871D861C8681E090E0DF918C
:104FB000CF911F910F91FF90EF90CF9008956111C5
:104FC00001C061E0FC01648B08954C7F38E0439F91
:104FD000C001112430E043E0359527954A95E1F76B
:104FE000822B932B687F962B0895DC01ED91FC9129
:104FF0000288F389E02D0994CF93DF93EC01E881D7
:10500000F9810488F589E02D0995BC01CE01DF9175
:10501000CF910C94F527CF93DF93EC01E881F981D0
:105020000488F589E02D099521E0298F988F8F8BD1
:10503000998B888B9B8B8A8BDF91CF910895FC0194
:10504000818D882371F0168A8789908D918B808B52
:10505000938B828B5587448737872687CF010C94A3
:105060001D140895803D27E0920710F0805D974061
:1050700050E0EEE6FAE021E02E1B322F3E0F36170D
:1050800028F43491430F511D3196F7CF633038F037
:105090009C0123703327232B11F44F5F5F4F6DE684
:1050A00071E0869F9001879F300D969F300D1124EF
:1050B0002150310903969695879596958795280FE7
:1050C000391FC901840F951F0895FC01808190ED5F
:1050D000980F9A3038F4880F982F990F990F980FDE
:1050E000905E01C090E0818180538A3008F080E0BA
:1050F000890F0895CF92DF92EF92FF92CF93DF93C3
:10510000EC01405853446D467843ECE3CE2ED12C4D
:10511000E12CF12CCB01BA01A70196010E94543B6E
:105120006D83CA01B901A70196010E94543B6C83AB
:10513000CA01B90128E130E040E050E00E94543B50
:105140006B83188243E95EEFE8818E2F8370A1E0C4
:1051500009F0A0E08A2F90E0BC0163597E4F26172A
:10516000370740F0BA01681B790B260F371FEF5F36
:10517000E883EACF81E089838981E82FF0E0E35971
:10518000F54FE491AA2319F0823009F4EF5FF0E0C3
:105190002E173F0720F02E1B3F0B8F5FECCF2F5FAA
:1051A0002A83DF91CF91FF90EF90DF90CF90089509
:1051B0008F929F92AF92BF92CF92EF920F93CF9325
:1051C000DF93CDB7DEB7FC01603D87E0780710F0D4
:1051D000605D77406083418322830383E482C582DC
:1051E00086829782A086B1864C855D856E857F8597
:1051F0004287538764877587DF91CF910F91EF9036
:10520000CF90BF90AF909F908F900895CF92DF92F4
:10521000EF92FF920F931F93CF93DF93EC017B01EB
:105220006A01CB0109960E9465288883F7010081F5
:10523000112707FD1095212F312FF801E154F109B5
:10524000E331F10558F5E15CFF4F0C94763BF70133
:105250008181813629F082818E3621F486E01DC05D
:1052600081E01BC087E019C082E017C0F70182818E
:10527000823711F484E011C088E00FC0F701828109
:10528000823711F483E009C085E007C089E005C0DA
:105290008AE003C08BE001C08CE08983C7010496DB
:1052A0000E9465288A83C6010E9465288B83C601F7
:1052B00003960E9465288C83C60106960E94652885
:1052C0008D831A861B861C861D861E821F82188669
:1052D0001986DF91CF911F910F91FF90EF90DF9092
:1052E000CF900895CF93DF93EC0188814A81698143
:1052F00090E00E9432289C01A8E1B0E00E947C3B33
:105300009B01AC018B81280F311D411D511DACE368
:10531000B0E00E948B3B9B01AC018C81280F311DBA
:10532000411D511D0E948B3B2D81620F711D811DFE
:10533000911D60587C4B8249974CDF91CF91089525
:105340001F93CF93DF93262FEA01482F68E689E465
:1053500096E00E94641C182F8823C1F062E973E074
:105360008FE995E00E941D14BE018FE995E00E942F
:105370001D1464EB73E08FE995E00E941D1440E179
:1053800050E0612F8FE995E00E941615812FDF9183
:10539000CF911F9108950F931F93CF93DF93EA014D
:1053A0008B0121E0482F68E689E496E00E94B01C5A
:1053B000182F8823C1F060ED73E08FE995E00E941B
:1053C0001D14BE018FE995E00E941D146EEF73E07D
:1053D0008FE995E00E941D1440E150E0612F8FE9B4
:1053E00095E00E941615812FDF91CF911F910F91AB
:1053F000089581E00895CF93DF931F92CDB7DEB774
:10540000198244E154E0BE016F5F7F4F8FE00E943C
:10541000CB2991E0811190E0892F0F90DF91CF91FE
:105420000895FF920F931F93CF93DF931F92CDB7F1
:10543000DEB78C01FC012581FAE0FF2E822F6F2D53
:105440000E94483B682F660F680F660F620F44E2A8
:1054500054E080E00E94A029F8012481822F6F2D62
:105460000E94483B682F660F680F660F620F44E288
:1054700054E081E00E94A029F8012381822F6F2D42
:105480000E94483B682F660F680F660F620F44E268
:1054900054E082E00E94A02944E254E060E083E00E
:1054A0000E94A029F8012281822F6F2D0E94483B83
:1054B000682F660F680F660F620F44E254E084E0C5
:1054C0000E94A029F8012181822F6F2D0E94483B64
:1054D000682F660F680F660F620F44E254E085E0A4
:1054E0000E94A029F8012081822F6F2D0E94483B45
:1054F000682F660F680F660F620F44E254E086E083
:105500000E94A0294FE254E0BE016F5F7F4F8FE001
:105510000E94CB2969816F7769834BE354E08FE068
:105520000E94A0290F90DF91CF911F910F91FF90C2
:1055300008954F925F926F927F928F929F92AF9257
:10554000BF92CF92DF92EF92FF920F931F93CF9370
:10555000DF93CDB7DEB767970FB6F894DEBF0FBE07
:10556000CDBF5C0180E1EBE0F1E0DE01119601903E
:105570000D928A95E1F78E010F5E1F4F27E040E004
:1055800068E689E496E00E94B01C99899F77292FEC
:1055900022952F708AEF992E289F900C11248A88CB
:1055A000982D92959F70989F800C11247B88972D41
:1055B00092959F70989F700C11246D88962D9295EE
:1055C0009F70989F600C11245E88952D92959F7016
:1055D000989F500C11244F88942D92959F70989FFE
:1055E000400C112422E041E168E689E496E00E9443
:1055F000B01C698970E080E090E00E945F35EA8924
:10560000F0E0A6E0F595E795AA95E1F7EE0FFF1F0C
:10561000EE0FFF1F21E030E02C0F3D1FE20FF31FC4
:1056200020813181428153810E945C346B017C0175
:10563000F50140825182628273828482958220E0E9
:1056400030E040E151E40E94133620E030E040EACF
:1056500050E40E94C43420E030E040E052E40E9474
:105660005C34F5016683778380879187C286D38611
:10567000E486F586C50167960FB6F894DEBF0FBEC7
:10568000CDBFDF91CF911F910F91FF90EF90DF90F1
:10569000CF90BF90AF909F908F907F906F905F90D2
:1056A0004F900895CF92DF92EF92FF920E9472295D
:1056B0006B017C010E94291228EE33E040E050E0AB
:1056C0000E94543BC21AD30AE40AF50AC09270063B
:1056D000D0927106E0927206F0927306FF90EF90FE
:1056E000DF90CF900895CF92DF92EF92FF92CF9309
:1056F000DF93EC01C0907006D0907106E0907206C6
:10570000F09073060E94291228EE33E040E050E04A
:105710000E94543BBA01A9014C0D5D1D6E1D7F1DF9
:10572000CE010E947A28CE01DF91CF91FF90EF90B9
:10573000DF90CF9008950895AF92BF92CF92DF92FD
:10574000EF92FF920F931F93CF93DF931F92CDB7EA
:10575000DEB724E030E046E250E060E670E089E445
:1057600096E00E94AE1C0E9429126B017C0182E02F
:10577000D80EE11CF11C9E012F5F3F4F46E260E610
:1057800089E496E00E94981B182FA12CB12C1123BC
:1057900009F44BC08E010F5F1F4F21E046E260E627
:1057A00089E496E00E94B01C182F8FEFA81AB80A5F
:1057B0000E942912C616D706E806F90628F089EED7
:1057C000A81683E0B80654F16BE37BE08FE995E01F
:1057D0000E943A1462E27BE08FE995E00E94C313D5
:1057E00040E150E0612F8FE995E00E94161564E1D9
:1057F0007BE08FE995E00E94C31340E150E06981AE
:105800008FE995E00E94161568EE73E080E090E065
:105810000E94581283E090E00E94073461E070E03B
:1058200080E090E00E945812B2CF898182FDB2CF11
:105830000F90DF91CF911F910F91FF90EF90DF902C
:10584000CF90BF90AF9008951F93CF93DF93E9015E
:10585000242F462F60E689E496E00E94641C182FEE
:105860008823C1F062EF7AE08FE995E00E94C313CC
:10587000BE018FE995E00E941D1466ED7AE08FE984
:1058800095E00E94C31340E150E0612F8FE995E05D
:105890000E941615812FDF91CF911F9108950F93CC
:1058A0001F93CF93DF938A01E90121E0462F60E641
:1058B00089E496E00E94B01C182F8823C1F065EBA4
:1058C0007AE08FE995E00E94C313BE018FE995E06D
:1058D0000E941D1469E97AE08FE995E00E94C313E4
:1058E00040E150E0612F8FE995E00E941615812F6D
:1058F000DF91CF911F910F9108950F931F93CF9335
:10590000DF931F92CDB7DEB78C0128E13CE0AE01FA
:105910004F5F5F4F66E20E944F2C49814F7749836A
:1059200025E03CE066E2C8010E94242C0F90DF9144
:10593000CF911F910F9108950F931F93CF93DF93F2
:105940001F92CDB7DEB78C0122EF3BE0AE014F5F77
:105950005F4F66E20E944F2C4981406849832FEDDA
:105960003BE066E2C8010E94242C0F90DF91CF91AA
:105970001F910F9108950F931F93CF93DF931F9261
:10598000CDB7DEB78C012EEC3BE0AE014F5F5F4F31
:1059900066E20E944F2C49814E7F49832DEB3BE00C
:1059A00066E2C8010E94242C0F90DF91CF911F91D5
:1059B0000F910895FF920F931F93CF93DF931F9240
:1059C000CDB7DEB78C01F62E29EA3BE0AE014F5F82
:1059D0005F4F66E20E944F2C4F2D483008F047E0A1
:1059E000440F440F440F8981877C482B498325E964
:1059F0003BE066E2C8010E94242C0F90DF91CF911A
:105A00001F910F91FF9008950F931F93CF93DF93F2
:105A10001F92CDB7DEB78C0125E83BE0AE014F5FAA
:105A20005F4F66E20E944F2C49814D7F498325E7F5
:105A30003BE066E2C8010E94242C25E63BE0AE0173
:105A40004F5F5F4F66E2C8010E944F2C4981426060
:105A5000498325E53BE066E2C8010E94242C0F90B3
:105A6000DF91CF911F910F9108958F929F92AF92E6
:105A7000BF92CF92DF92EF92FF920F931F93CF933B
:105A8000DF9300D000D01F92CDB7DEB75C012DE1CF
:105A90003FE0AE014B5F5F4F60E00E944F2C8D8175
:105AA00082FF09C021E03FE0AE014C5F5F4F61E043
:105AB000C5010E944F2C25EE3EE0AE014B5F5F4FCB
:105AC00060E0C5010E944F2C8D8182FF06C06BEB08
:105AD0007EE08FE995E00E943A14C5010E949C2C5B
